:020000040800F2
:10000000500700209D010008510800080F08000853
:100010004D080008E5050008970F000800000000E3
:10002000000000000000000000000000110A0008AD
:10003000E905000800000000D9080008250B0008A9
:10004000B7010008B7010008B7010008B7010008B0
:10005000B7010008B7010008B7010008B7010008A0
:10006000B7010008B7010008B7010008B701000890
:10007000B7010008B7010008B7010008B701000880
:10008000B7010008B7010008B7010008B701000870
:10009000B7010008B7010008B7010008B701000860
:1000A000B7010008B7010008B7010008B701000850
:1000B000B7010008B701000800000000B701000800
:1000C000B70100080000000000000000B7010008B0
:1000D00000000000890B0008B701000800000000C4
:1000E000B7010008B7010008B701000800F002F8E6
:1000F00000F045F80AA090E8000C82448344AAF17D
:100100000107DA4501D100F03AF8AFF2090EBAE87A
:100110000F0013F0010F18BFFB1A43F0010318473B
:10012000B0100000D0100000103A24BF78C878C189
:10013000FAD8520724BF30C830C144BF04680C60ED
:10014000704700000023002400250026103A28BF35
:1001500078C1FBD8520728BF30C148BF0B60704739
:10016000642900F0A780632900F09E81732900F0C4
:10017000A381002070471FB51FBD10B510BD00F052
:10018000FFF91146FFF7F7FF00F06CFF00F01DFAD2
:1001900003B4FFF7F2FF03BC00F0FFFE09488047FD
:1001A00009480047FEE7FEE7FEE7FEE7FEE7FEE759
:1001B000FEE7FEE7FEE7FEE704480549054A064B71
:1001C00070470000290B0008ED00000850010020D6
:1001D000500700205003002050030020704700000B
:1001E0000FB4044910B503AA029800F069F910BCD5
:1001F0005DF814FB300000202DE9F0410E46044666
:10020000002020622046E168884730B3252805D0C9
:10021000D4E901219047206A401CF2E7E1682046BA
:1002200000278847050018D0A5F14100192802D8F9
:1002300020354FF400673246294620462760FFF7F5
:100240008FFF40B1012804D0F61D26F007060836BE
:10025000D8E7361DD6E72846DAE7206ABDE8F08100
:1002600070B50C460546012A05D02878800600D5D1
:10027000EA69002302E0012305E05B1C934202D2FD
:10028000E05C0028F9D1A869E618C01AA861286ABC
:10029000184428622846AFF3008004E0D5E9012124
:1002A00014F8010B9047B442F8D32846AFF300800E
:1002B00070BD00002DE9F041064600241068752944
:1002C000314616A510D0AFF30080002802DA404274
:1002D00013A507E031688A0701D512A502E0490796
:1002E00004D511A5012401E0AFF3008000210A220A
:1002F00006F1240709E0B0FBF2FCB0FBF2F302FBCD
:100300001C00303078541846491C0028F3D123468D
:100310002A463046BDE8F04100F063B80000000016
:100320002D0000002B0000002000000030B5054625
:100330000B462A4613F8014B12F8010B08B1A042F4
:10034000F8D01CB1002802D06D1CF1E7284630BD62
:10035000032A40F2308010F0030C00F0158011F8F1
:10036000013BBCF1020F624498BF11F801CB00F8C9
:10037000013B38BF11F8013BA2F1040298BF00F81D
:1003800001CB38BF00F8013B11F0030300F0AA8055
:10039000083AC0F0088051F8043B083A51F804CB01
:1003A000A0E80810F5E7121D5CBF51F8043B40F8C7
:1003B000043BAFF30080D20724BF11F8013B11F8D2
:1003C00001CB48BF11F8012B24BF00F8013B00F816
:1003D00001CB48BF00F8012B70477047704770474A
:1003E00070472DE9F0470D4699469246044600F1C4
:1003F00024080168880604D5E06921F01001216015
:1004000000E00120A84201DD471B00E00027A169B0
:100410007A1902EB0900081AA0612078C00602D4FC
:100420002046AFF30080002608E0D4E901211AF845
:1004300006009047206A401C761C20624E45F4DB83
:100440002078C0060AD52046AFF3008006E0D4E944
:10045000012130209047206A401C2062381EA7F1FD
:100460000107F4DC07E0D4E9012118F80500904702
:10047000206A401C2062281EA5F10105F3DC2046FD
:10048000AFF300802078000602D50220BDE8F08797
:100490000120FBE710B5436913B1AFF3008001E021
:1004A000FFF7DEFE012010BD127800F124010A7072
:1004B00000224A700122EDE711684FF0FF32E9E7B0
:1004C000074B70B50D467B4400F043F804462846C0
:1004D00000F052F810B14FF0FF3070BD204670BDF3
:1004E000670B000010B5203AC0F00B80B1E818503F
:1004F000203AA0E81850B1E81850A0E81850BFF40E
:10050000F5AF5FEA027C24BFB1E81850A0E81850AC
:1005100044BF18C918C0BDE810405FEA827C24BF00
:1005200051F8043B40F8043B08BF7047D20728BF8E
:1005300031F8023B48BF11F8012B28BF20F8023BDD
:1005400048BF00F8012B704701694A1C0261087816
:10055000704700B58FB0CDE9013100210591054903
:100560007944CDE9031011466846FFF745FE0FB008
:1005700000BD0000E5FFFFFF007B00F0800070473A
:10058000754600F02BF8AE4605006946534620F04C
:100590000700854618B020B5FFF70EFEBDE82040E5
:1005A0004FF000064FF000074FF000084FF0000B2F
:1005B00021F00701AC46ACE8C009ACE8C009ACE8E2
:1005C000C009ACE8C0098D46704710B50446AFF3CA
:1005D00000802046BDE81040FFF7DABD00487047B4
:1005E000F000002000BFFEE770470000F8B50024CF
:1005F00000250026324890F8330000285ED000BF66
:100600005AE0002E56D12FA12D48FFF78FFE041E71
:1006100003D12DA0FFF7E4FDF8BD641C29A12046FD
:10062000FFF784FE051E42D0072E2ED2DFE806F02B
:100630002D040B12192027002A1B214620483F3089
:10064000FFF786FE22E02A1B21461D484930FFF7AE
:100650007FFE1BE02A1B214619484A30FFF778FE2F
:1006600014E02A1B214616485530FFF771FE0DE0B5
:100670002A1B214612483530FFF76AFE06E02A1B86
:1006800021466846FFF764FE00E000BF00BF2C462D
:1006900001200B4981F834009DF80000412801D168
:1006A000012000E00020064981F8560002E00CA07D
:1006B000FFF796FD701CC6B2062EA2DD00BFABE7A9
:1006C000980000202C000000546865726520697352
:1006D000206E6F74206120636F6D6D61210A0000D0
:1006E00063757420737472696E6773206572726FBC
:1006F00072210A002DE9F041024600250026002063
:1007000000230024002791F803C00CF00F0591F896
:1007100003C00CF0100CBCF1000F03D091F802C024
:100720004CEA050591F800C0BCF1000F31D0146807
:1007300000202BE04FF0010C0CFA00F3B1F800C0E0
:100740000CEA03069E4220D183004FF00F0C0CFAF6
:1007500003F7BC4305FA03FC4CEA040491F803C018
:10076000BCF1280F06D14FF0010C0CFA00FCC2F8C6
:1007700014C00AE091F803C0BCF1480F05D14FF056
:10078000010C0CFA00FCC2F810C0401C0828D1D3A0
:100790001460B1F800C0BCF1FF0F34DD54680020D4
:1007A0002EE000F1080C4FF0010808FA0CF3B1F844
:1007B00000C00CEA03069E4221D183004FF00F0CCB
:1007C0000CFA03F7BC4305FA03FC4CEA040491F865
:1007D00003C0BCF1280F05D100F1080C08FA0CF891
:1007E000C2F8148091F803C0BCF1480F07D100F1A2
:1007F000080C4FF0010808FA0CF8C2F81080401CF1
:100800000828CED35460BDE8F0810161704700BF75
:10081000FEE7000008B50121102000F06FF84FF44A
:100820000050ADF8000010208DF8030003208DF873
:10083000020069460448FFF75DFF4FF4005102488B
:10084000FFF7E3FF08BD00000010014000BFFEE716
:100850007047000070B5002100230F22C47804B354
:10086000154C246804F4E064C4F5E064210AC1F185
:100870000403CA40447804FA03F184781440214305
:1008800009010E4C0678A155047804F01F050124D7
:10089000AC4005786D11AD0005F1E025C5F80041CB
:1008A00009E0047804F01F050124AC40044D0678EB
:1008B000761145F8264070BD0CED00E000E400E044
:1008C00080E100E002490143024A116070470000E4
:1008D0000000FA050CED00E07047000029B1064A5F
:1008E00012690243044B1A6104E0034A126982430D
:1008F000014B1A61704700000010024029B1064AFE
:1009000092690243044B9A6104E0034A926982436C
:10091000014B9A61704700000010024029B1064A5D
:10092000D2680243044BDA6004E0034AD26882438F
:10093000014BDA60704700000010024030B5002122
:100940000022002400232D4D6D6805F00C0121B11B
:10095000042905D0082923D105E0294D056022E0AE
:10096000274D05601FE0254D6D6805F47012234D7D
:100970006D6805F48034022505EB92421CB9214DC7
:10098000554305600BE01D4D6D6805F400351DB144
:100990001C4D5543056002E0194D5543056002E0CA
:1009A000174D056000BF00BF144D6D6805F0F001E4
:1009B0000909154D6B5C0568DD4045600F4D6D689C
:1009C00005F4E061090A104D6B5C4568DD40856007
:1009D0000A4D6D6805F46051C90A0B4D6B5C4568A2
:1009E000DD40C560054D6D6805F44041890B074D3C
:1009F0006B5CC568B5FBF3F5056130BD00100240C6
:100A000000127A0000093D0014000020240000209C
:100A1000704710B500F002F810BD00000CB50020C2
:100A2000019000903348006840F4803031490860FC
:100A300000BF3048006800F4003000900198401C6E
:100A40000190009818B90198B0F5A06FF1D129482C
:100A5000006800F4003010B10120009001E0002097
:100A600000900098012843D12348006840F010000E
:100A7000214908600846006820F003000860084625
:100A8000006840F0020008601A4840681949486050
:100A90000846406848600846406840F48060486006
:100AA0000846406820F47C1048600846406840F4DE
:100AB000E81048600846006840F08070086000BF99
:100AC0000C48006800F000700028F9D00948406820
:100AD00020F00300074948600846406840F00200E3
:100AE000486000BF0348406800F00C000828F9D1B6
:100AF0000CBD00000010024000200240042808D174
:100B00004FF0E021096941F004014FF0E02211614A
:100B100007E04FF0E021096921F004014FF0E022E5
:100B2000116170477047000010B51348006840F02D
:100B300001001149086008464068104908400E4904
:100B40004860084600680E4908400B49086008469E
:100B5000006820F4802008600846406820F4FE0009
:100B600048604FF41F008860FFF753FF4FF00060AC
:100B70000449086010BD0000001002400000FFF8AA
:100B8000FFFFF6FE08ED00E010B540F225512F48BA
:100B900000F03DF9002858D02C4800F0F3F9C4B219
:100BA0002B48008800F4004000284ED128480088D7
:100BB00000F4804068B30A2C13D025480088C0F3A5
:100BC0000D0024490C5422480088401C204908800C
:100BD00008460088C0F30D00632836DD0020088039
:100BE00033E01B48008840F4004019490880194848
:100BF0000078242829D1174800794C2825D13322A0
:100C000014491548FFF7A4FB0120134981F833006C
:100C10001BE00D2C06D10E48008840F480400C49A2
:100C2000088012E00A480088C0F30D0009490C54FE
:100C300007480088401C0649088008460088C0F321
:100C40000D00632801DD0020088010BD0038014040
:100C50002C000020340000209800002010B586B041
:100C6000044601218803FFF749FE1E4800F074F88E
:100C700002940020ADF80C00ADF80E00ADF81000A5
:100C80000C20ADF812000020ADF8140002A91548A0
:100C900000F00CF94FF4A060FFF714FE25208DF84A
:100CA000040003208DF805008DF8060001208DF862
:100CB000070001A8FFF7CEFD80210A4800F036F8B2
:100CC000012240F22551074800F0CBF8002240F203
:100CD0002661044800F0C5F80121024800F02FF811
:100CE00006B010BD0038014008B501210420FFF70F
:100CF00005FE4FF40070ADF8000003208DF80200EF
:100D000018208DF8030069460748FFF7F3FC4FF4FD
:100D10008060ADF8000004208DF8030069460248A9
:100D2000FFF7E8FC08BD00000008014001F4007274
:100D3000B2F5007F00D100BFCA430280704721B1E5
:100D4000828942F40052828104E082894DF6FF7369
:100D50001A4082817047000010B504462048844242
:100D600009D101218803FFF7D9FD00214FF480400C
:100D7000FFF7D4FD32E01B48844209D10121480429
:100D8000FFF7ACFD00214FF40030FFF7A7FD25E091
:100D90001548844209D101218804FFF79FFD0021F5
:100DA0004FF48020FFF79AFD18E01048844209D1E3
:100DB0000121C804FFF792FD00214FF40020FFF746
:100DC0008DFD0BE00A48844208D101210805FFF798
:100DD00085FD00214FF48010FFF780FD10BD00005D
:100DE000003801400044004000480040004C0040F2
:100DF0000050004002460020B1F5007F00D100BF46
:100E000013880B400BB1012000E00020704770B543
:100E10000246002400230025002040F66A16B14255
:100E200000D100BFC1F3421501F01F03012606FAED
:100E300003F3012D02D19689334006E0022D02D141
:100E4000168A334001E0968A33400C12012606FAD6
:100E500004F41688344013B10CB1012000E00020E6
:100E600070BDF0B50346002400260025002040F6A2
:100E70006A17B94200D100BF1846C1F3421401F00D
:100E80001F06012707FA06F5012C01D10C3004E0FA
:100E9000022C01D1103000E014301AB107682F4342
:100EA000076002E00768AF430760F0BD2DE9F04737
:100EB00086B005460E460024A24600BFA146002784
:100EC000B08900B100BF2F462C8A4CF6FF70044059
:100ED000F08804432C82AC894EF6F3100440B088AD
:100EE00031890843718908430443AC81AC8A4FF6C9
:100EF000FF400440B0890443AC8201A8FFF71EFD07
:100F00001F48874202D1DDF810A001E0DDF80CA0F7
:100F1000A88900F4004040B10AEBCA0000EB0A10B7
:100F200031684900B0FBF1F807E00AEBCA0000EBBA
:100F30000A1031688900B0FBF1F86420B8FBF0F0CA
:100F400004012009642101FB1089A88900F40040F4
:100F500040B1322000EBC900B0FBF1F000F0070017
:100F6000044308E0322000EB09106421B0FBF1F0EB
:100F700000F00F0004432C8106B0BDE8F0870000AC
:100F80000038014001468888C0F308007047C1F36B
:100F900008028280704700BFFEE700BF7047000074
:100FA00010B56FF00400FFF7A9FD0A4800680A4970
:100FB000B0FBF1F0094908700846007800EB4001E9
:100FC000C1EBC0104FF6FF7101EAC0000449088070
:100FD00010BD00000000002000127A002800002050
:100FE0002A0000200146114A12884A434FF0E023AC
:100FF0005A6100229A611A46126942F001021A618E
:1010000000BF4FF0E022106900F001021AB100F4B5
:101010008032002AF5D04FF0E022126922F001025E
:101020004FF0E0231A6100229A6170472A000020E5
:1010300070B504460D4600BF80210948FFF7DAFE6F
:101040000028F9D0E1B20648FFF7A1FF00BF402118
:101050000348FFF7CFFE0028F9D0204670BD0000FE
:1010600000380140FFF79CFFFFF73EFE4FF4E130F0
:10107000FFF7F4FDFFF7CEFB3AE01E480088C0F30F
:101080000D011DA0FFF7ACF81A48008800F40040DD
:10109000002821D0FFF7AAFA33221C491CA000F037
:1010A00077F80A22194935311FA000F071F80A2299
:1010B00016493F3122A000F06BF80B2213494A3148
:1010C00025A000F065F8114890F8561028A0FFF709
:1010D00087F80020074908802C48006808B90120DB
:1010E00000E00020294908604FF47A70FFF77AFF8A
:1010F000C3E700002C000020302C555341525431DE
:101100005F52585F5354413A25640A00980000200A
:10111000312C536176655F446174612E4750535F93
:101120004275666665723A00322C536176655F449B
:101130006174612E55544354696D653A0000000096
:10114000332C536176655F446174612E6C61746900
:10115000747564653A000000342C536176655F4411
:101160006174612E6C6F6E6769747564653A000016
:10117000352C536176655F446174612E69735573D4
:101180006566756C6C3A25640A000000B401224261
:101190002DE9F04104460E46174600251CB12146B4
:1011A00008A0FFF71DF8002505E0715D06A0FFF718
:1011B00017F8681C85B2BD42F7DB04A0FFF710F8F2
:1011C000BDE8F08125730000256300000A000000DF
:1011D000F011000800000020340000002801000881
:1011E00024120008340000201C07000044010008FD
:1011F00000A24A04000000000000000001020304F5
:1012000006070809000000000102030401020304AC
:10121000060708090204060800000000000000009C
:0412200000000000CA
:040000050800019D51
:00000001FF
